:1000000023C03DC03CC03BC03AC098C038C037C0D8
:1000100036C035C034C033C032C031C030C000003B
:100020000000370000000000380002020202020255
:10003000020202020102040810202004100801023A
:10004000000004000000000011241FBECFE5D2E034
:10005000DEBFCDBF10E0A0E6B0E0ECECF2E002C005
:1000600005900D92A236B107D9F720E0A2E6B0E0E4
:1000700001C01D92AB36B207E1F7AAD025C1C0CFAF
:1000800090E0FC01E25CFF4F3491FC01EC5CFF4F1F
:100090002491FC01E65DFF4FE491EE23B9F0332398
:1000A00029F0323001F198F43130C9F0F0E0EE0F70
:1000B000FF1FEC5DFF4FA591B4918FB7F894EC91C1
:1000C000611114C020952E232C938FBF08953330D7
:1000D00011F0343059F78CB58F7D8CBDE7CF8AB5E0
:1000E0008F778ABDE3CF8AB58F7DFBCF2E2BECCFE8
:1000F0003FB7F8948091670090916800A0916900E3
:10010000B0916A0022B708B601FE05C02F3F19F072
:100110000196A11DB11D3FBFBA2FA92F982F882787
:10012000BC01CD01620F711D811D911D46E0660F5E
:10013000771F881F991F4A95D1F708951F920F9234
:100140000FB60F9211242F933F938F939F93AF93EA
:10015000BF938091630090916400A0916500B0917D
:1001600066003091620020E3230F2D3758F540964A
:10017000A11DB11D209362008093630090936400E1
:10018000A0936500B093660080916700909168002D
:10019000A0916900B0916A000196A11DB11D8093E4
:1001A000670090936800A0936900B0936A00BF91C4
:1001B000AF919F918F913F912F910F900FBE0F9014
:1001C0001F90189523EB230F4196A11DB11DD2CF8F
:1001D00078948AB582608ABD8AB581608ABD83B70A
:1001E000826083BF83B7816083BF89B7826089BF24
:1001F00080B7826080BF3298319A309A379A8CB536
:1002000080648CBD30E020E0F901EC5CFF4F44914C
:10021000F901E65DFF4F8491882399F090E0880F03
:10022000991FFC01E25EFF4FA591B491FC01EC5DCA
:10023000FF4F859194918FB7F894EC91E42BEC9358
:100240008FBF2F5F3F4F25303105F1F67724739430
:1002500000E010E0D0E0C09160006C2F8D2F10DF27
:1002600047DF4B015C018BE4C82ED12CE12CF12C33
:100270003FDF681979098A099B09683E7340810547
:100280009105B0F321E0C21AD108E108F10888EE27
:10029000880E83E0981EA11CB11CC114D104E10496
:1002A000F10431F7DF5FD530B1F6C725C0936000A8
:1002B000C0E060E08C2FE4DECF5FC530D1F70115E0
:0C02C000110541F29DDEC6CFF894FFCF7F
:0202CC0001002F
:00000001FF
