:1000000023C032C031C030C02FC08AC02DC02CC028
:100010002BC02AC029C028C027C026C025C0000088
:100020000000370000000000380002020202020255
:10003000020202020102040810202004100801023A
:10004000000004000000000011241FBECFE5D2E034
:10005000DEBFCDBF20E0A0E6B0E001C01D92A93612
:10006000B207E1F7A7D035C1CBCFEEE3F0E0949132
:10007000E4E3F0E02491EAE2F0E0E491EE2349F1D8
:10008000992399F0923071F028F4913071F49AB577
:100090009F770AC0933011F0943039F49CB59F7D5E
:1000A0009CBD03C09AB59F7D9ABDF0E0EE0FFF1F87
:1000B000EC5DFF4FA591B4919FB7F894811105C0F5
:1000C0008C91E22FE095E82302C0EC91E22BEC93B7
:1000D0009FBF08953FB7F8948091650090916600A6
:1000E000A0916700B091680022B708B601FE05C074
:1000F0002F3F19F00196A11DB11D3FBFBA2FA92FA7
:10010000982F8827820F911DA11DB11DBC01CD0123
:1001100046E0660F771F881F991F4A95D1F708950B
:100120001F920F920FB60F9211242F933F938F932C
:100130009F93AF93BF938091610090916200A091D3
:100140006300B09164003091600020E3230F2D37ED
:1001500020F44096A11DB11D05C023EB230F41964D
:10016000A11DB11D209360008093610090936200F7
:10017000A0936300B0936400809165009091660045
:10018000A0916700B09168000196A11DB11D8093F8
:10019000650090936600A0936700B0936800BF91DC
:1001A000AF919F918F913F912F910F900FBE0F9024
:1001B0001F90189578948AB582608ABD8AB581604F
:1001C0008ABD83B7826083BF83B7816083BF89B7ED
:1001D000826089BF80B7826080BF3298319A309A3E
:1001E000379A8CB580648CBDE4E3F0E02491EAE2B8
:1001F000F0E08491882399F090E0880F991FFC012A
:10020000E25EFF4FA591B491FC01EC5DFF4F85913B
:1002100094918FB7F894EC91E22BEC938FBFEBE3C2
:10022000F0E02491E1E3F0E084918823C1F090E0D4
:10023000880F991FFC01E25EFF4FC591D491FC012C
:10024000EC5DFF4FA591B4919FB7F8948881E22FA0
:10025000E0958E2388838C91E823EC939FBFC0E0C8
:10026000D0E011E017B9369A3699FECF84B125B1A6
:1002700090E0922B8130924014F081E001C080E048
:10028000F4DE28DF6B017C0184E6882E912CA12C02
:10029000B12C20DFDC01CB018C199D09AE09BF090F
:1002A000883E9340A105B105A0F381E0881A91082A
:1002B000A108B10828EEC20E23E0D21EE11CF11CF9
:1002C00081149104A104B10421F7209759F298DE1A
:0602D000C9CFF894FFCF36
:00000001FF
