:100000000C945D000C9485000C9485000C94850084
:100010000C9485000C9485000C9485000C9485004C
:100020000C9485000C9485000C9485000C9485003C
:100030000C9485000C9485000C9485000C9485002C
:100040000C9443020C9485000C94B3020C948D0222
:100050000C9485000C9485000C9485000C9485000C
:100060000C9485000C9485000000000024002700FB
:100070002A0000000000250028002B0004040404CE
:100080000404040402020202020203030303030342
:10009000010204081020408001020408102001021F
:1000A00004081020000000080002010000030407FB
:1000B0000000000000000000450411241FBECFEF27
:1000C000D8E0DEBFCDBF11E0A0E0B1E0EEEEFEE093
:1000D00002C005900D92A632B107D9F721E0A6E241
:1000E000B1E001C01D92AC3CB207E1F710E0CDE5F4
:1000F000D0E004C02197FE010E947204CC35D107E4
:10010000C9F70E94E5020C9475070C940000EEEA12
:10011000F0E09491EAE9F0E02491E6E8F0E0E4917F
:10012000EE2309F43CC0992339F1933091F038F46F
:100130009130A9F0923001F594B59F7D12C09730AF
:1001400091F09830A1F09430B9F4909180009F7DA7
:1001500003C0909180009F77909380000DC094B56C
:100160009F7794BD09C09091B0009F7703C0909194
:10017000B0009F7D9093B000F0E0EE0FFF1FEE58AF
:10018000FF4FA591B4919FB7F894811104C08C9151
:100190002095282302C0EC912E2B2C939FBF08950D
:1001A000CF93DF9390E0FC01E057FF4F2491FC01D7
:1001B000E458FF4F8491882361F190E0880F991FE4
:1001C000FC01E859FF4FC591D491FC01EE58FF4F57
:1001D000A591B491611109C09FB7F89488812095C9
:1001E00082238883EC912E230BC0623061F49FB789
:1001F000F8948881322F309583238883EC912E2BBD
:100200002C939FBF06C08FB7F894E8812E2B2883CC
:100210008FBFDF91CF9108953FB7F8948091C801C7
:100220009091C901A091CA01B091CB0126B5A89BBC
:1002300005C02F3F19F00196A11DB11D3FBFBA2F78
:10024000A92F982F8827820F911DA11DB11DBC01D8
:10025000CD0142E0660F771F881F991F4A95D1F79D
:100260000895CF92DF92EF92FF920F931F93CF9357
:10027000DF936C017A018B01C0E0D0E0CE15DF0581
:1002800081F0D8016D918D01D601ED91FC91019025
:10029000F081E02DC6010995892B11F02196EECF52
:1002A0007E01C701DF91CF911F910F91FF90EF90D9
:1002B000DF90CF900895089580E090E00895FC01CC
:1002C000538D448D252F30E0842F90E0821B930BBB
:1002D000541710F0CF96089501970895FC01918D61
:1002E000828D981761F0828DDF01A80FB11D5D9698
:1002F0008C91928D9F5F9F73928F90E008958FEF06
:100300009FEF0895FC01918D828D981731F0828DB9
:10031000E80FF11D858D90E008958FEF9FEF089510
:10032000FC01918D228D892F90E0805C9F4F821B74
:1003300091098F739927089586E291E00E949001B8
:1003400021E0892B09F420E0822F0895FC01848D9F
:10035000DF01A80FB11DA35ABF4F2C91848D90E0EF
:1003600001968F739927848FA689B7892C93A089CA
:10037000B1898C91837080648C93938D848D981354
:1003800006C00288F389E02D80818F7D80830895E7
:10039000EF92FF920F931F93CF93DF93EC0181E0D5
:1003A000888F9B8D8C8D981305C0E889F989808191
:1003B00085FD26C0F62E0B8D10E00F5F1F4F0F73CB
:1003C0001127E02E8C8DE8120CC00FB607FCFACF77
:1003D000E889F989808185FFF5CFCE010E94A601C9
:1003E000F1CF8B8DFE01E80FF11DE35AFF4FF08234
:1003F0009FB7F8940B8FEA89FB89808180620AC0DD
:100400009FB7F894EE89FF896083E889F989808134
:100410008370806480839FBF81E090E0DF91CF9103
:100420001F910F91FF90EF900895CF93DF93EC0110
:10043000888D8823C9F0EA89FB89808185FD05C004
:10044000A889B9898C9186FD0FC00FB607FCF5CF3E
:10045000808185FFF2CFA889B9898C9185FFEDCF86
:10046000CE010E94A601E7CFDF91CF91089580E0F1
:1004700090E0892B29F00E949C0181110C940000CE
:1004800008950E9478041F920F920FB60F921124C4
:100490002F933F938F939F93AF93BF938091C4010A
:1004A0009091C501A091C601B091C7013091C301DF
:1004B00023E0230F2D3720F40196A11DB11D05C0A7
:1004C00026E8230F0296A11DB11D2093C30180933E
:1004D000C4019093C501A093C601B093C701809158
:1004E000C8019091C901A091CA01B091CB010196B8
:1004F000A11DB11D8093C8019093C901A093CA01A9
:10050000B093CB01BF91AF919F918F913F912F916C
:100510000F900FBE0F901F9018951F920F920FB65D
:100520000F9211242F933F934F935F936F937F9379
:100530008F939F93AF93BF93EF93FF9386E291E0E6
:100540000E94A601FF91EF91BF91AF919F918F9172
:100550007F916F915F914F913F912F910F900FBEBF
:100560000F901F9018951F920F920FB60F921124A3
:100570002F938F939F93EF93FF93E0913601F09128
:1005800037018081E0913C01F0913D0182FD12C074
:10059000908180913F018F5F8F732091400182177E
:1005A00051F0E0913F01F0E0EA5DFE4F958F8093BE
:1005B0003F0101C08081FF91EF919F918F912F9119
:1005C0000F900FBE0F901F901895CF93DF93CDB76C
:1005D000DEB7C456D1090FB6F894DEBF0FBECDBF4B
:1005E000789484B5826084BD84B5816084BD85B50E
:1005F000826085BD85B5816085BD80916E0081601A
:1006000080936E00109281008091810082608093BF
:1006100081008091810081608093810080918000C1
:100620008160809380008091B10084608093B100EC
:100630008091B00081608093B00080917A008460E6
:1006400080937A0080917A00826080937A00809112
:100650007A00816080937A0080917A00806880932C
:100660007A001092C10061E08AE00E94D00060E050
:100670008EE00E94D000E0913601F091370182E0D7
:100680008083E0913201F09133011082E0913401D6
:10069000F09135018FEC808310923E01E0913A0198
:1006A000F0913B0186E08083E0913801F0913901BF
:1006B000808180618083E0913801F09139018081EF
:1006C00088608083E0913801F091390180818068F1
:1006D0008083E0913801F091390180818F7D8083A2
:1006E0003AE0332E42E1E42E41E0F42E52E3252E8F
:1006F0008E010F5F1F4F6EEAC62E60E0D62E20E4FB
:1007000020937C0080917A00806480937A008091AD
:100710007A0086FDFCCF809178002091790090E0EE
:10072000922B5C0197FF03C0E3E0AE0EB11CB594C1
:10073000A794B594A794FCE3FF9323E22F93E7EDEE
:10074000EF933F92BF92AF929F938F93FF92EF925E
:100750001F922F921F930F930E947D04F801019026
:100760000020E9F73197AF01401B510BB80186E239
:1007700091E00E94310142E050E063E271E086E2E4
:1007800091E00E94310161E08AE00E94D0000FB642
:10079000F894DEBF0FBECDBFA114B10411F480E008
:1007A00005C09FEFA916B10421F481E00E948700E3
:1007B00043C0F60184918330F9F048F48130B9F0F8
:1007C0008230A1F584B5806284BDA8BC35C0873075
:1007D000E9F0883019F1843049F580918000806219
:1007E00080938000B0928B00A0928A0025C084B5CF
:1007F000806884BDA7BC20C0809180008068809301
:100800008000B0928900A092880016C08091B0004C
:1008100080688093B000A092B3000EC08091B000B9
:1008200080628093B000A092B40006C0F0E8AF16DA
:10083000B1040CF0BACFB3CF0E940C012B013C01E4
:100840008AEF882E912CA12CB12C0E940C01DC0186
:10085000CB0184199509A609B709883E9340A105E3
:10086000B10598F321E0821A9108A108B10888EE39
:10087000480E83E0581E611C711C81149104A10470
:10088000B10419F70E9437023ACFE6E2F1E0138291
:10089000128288EE93E0A0E0B0E084839583A68383
:1008A000B78384E091E09183808385EC90E0958725
:1008B000848784EC90E09787868780EC90E0918B2A
:1008C000808B81EC90E0938B828B82EC90E0958B17
:1008D000848B86EC90E0978B868B118E128E138E14
:1008E000148E0895EE0FFF1F0590F491E02D0994EA
:1008F00081E090E0F8940C947507AEE0B0E0E3E896
:10090000F4E00C944C070D891E898F89988D26E0A0
:100910002C831A83098397FF02C080E090E8019737
:100920009E838D83AE01455E5F4F698D7A8DCE01CA
:1009300001960E94AD044D815E8157FD0AC02F8152
:100940003885421753070CF49A01F801E20FF31FA0
:1009500010822E96E4E00C946807ABE0B0E0E3EB85
:10096000F4E00C943E076C017B018A01FC011782C4
:100970001682838181FFCCC1CE0101963C01F60134
:100980009381F70193FD859193FF81917F018823E6
:1009900009F4BAC1853239F493FD859193FF8191B1
:1009A0007F01853229F4B60190E00E94A406E7CFCA
:1009B000912C212C312CFFE1F315D8F08B3279F0FA
:1009C00038F4803279F08332A1F4232D20611DC0E8
:1009D0008D3261F0803369F4232D216016C0832DA0
:1009E0008260382EE32DE4603E2E2AC0F32DF8609D
:1009F0001DC037FC2DC020ED280F2A3040F08E326C
:100A0000B9F436FC81C1232D2064322E19C036FE84
:100A100006C08AE0989E200D1124922E11C0EAE0B3
:100A20002E9E200D1124222EF32DF0623F2E08C0A1
:100A30008C3621F4832D8068382E02C0883641F42C
:100A4000F70193FD859193FF81917F018111B3CFD0
:100A5000982F9F7D9554933028F40C5F1F4F9FE390
:100A600099830DC0833631F0833771F0833509F0F7
:100A700059C021C0F801808189830E5F1F4F8824EF
:100A80008394912C530113C02801F2E04F0E511CA6
:100A9000F801A080B18036FE03C0692D70E002C06D
:100AA0006FEF7FEFC5010E9499064C018201F32D83
:100AB000FF773F2E16C0280122E0420E511CF8019C
:100AC000A080B18036FE03C0692D70E002C06FEFD8
:100AD0007FEFC5010E948E064C01F32DF0683F2E7A
:100AE000820133FC1BC0822D90E088169906B0F479
:100AF000B60180E290E00E94A4062A94F4CFF501AA
:100B000037FC859137FE81915F01B60190E00E942C
:100B1000A40621102A9421E0821A910881149104DC
:100B200071F7E8C0843611F0893641F5F80137FED7
:100B300007C060817181828193810C5F1F4F08C063
:100B400060817181072E000C880B990B0E5F1F4F7F
:100B5000F32DFF763F2E97FF09C0909580957095F5
:100B600061957F4F8F4F9F4FF0683F2E2AE030E016
:100B7000A3010E94E006882E861845C0853731F40F
:100B8000232D2F7EB22E2AE030E025C0932D997FB1
:100B9000B92E8F36C1F018F4883579F0B5C080379A
:100BA00019F0883721F0B0C0E92FE061BE2EB4FE05
:100BB0000DC0FB2DF460BF2E09C034FE0AC0292FE2
:100BC0002660B22E06C028E030E005C020E130E00B
:100BD00002C020E132E0F801B7FE07C060817181F8
:100BE000828193810C5F1F4F06C06081718180E01C
:100BF00090E00E5F1F4FA3010E94E006882E86182A
:100C0000FB2DFF773F2E36FE0DC0232D2E7FA22E0B
:100C1000891458F434FE0BC032FC09C0832D8E7E3B
:100C2000A82E05C0B82CA32C03C0B82C01C0B92C29
:100C3000A4FE0FC0FE01E80DF11D8081803321F478
:100C40009A2D997EA92E09C0A2FE06C0B394B39432
:100C500004C08A2D867809F0B394A3FC11C0A0FECD
:100C600006C0B21488F4280C922C9B180EC0B21443
:100C700060F4B60180E290E00E94A406B394F7CF3E
:100C8000B21418F42B1802C0982C212CA4FE10C00A
:100C9000B60180E390E00E94A406A2FE17C0A1FC6A
:100CA00003C088E790E002C088E590E0B6010CC080
:100CB0008A2D867859F0A1FE02C08BE201C080E245
:100CC000A7FC8DE2B60190E00E94A406891438F4D6
:100CD000B60180E390E00E94A4069A94F7CF8A942C
:100CE000F301E80DF11D8081B60190E00E94A40699
:100CF0008110F5CF222009F442CEB60180E290E0C7
:100D00000E94A4062A94F6CFF6018681978102C03C
:100D10008FEF9FEF2B96E2E10C945A07FC010590B0
:100D2000615070400110D8F7809590958E0F9F1FED
:100D30000895FC016150704001900110D8F7809532
:100D400090958E0F9F1F08950F931F93CF93DF935E
:100D5000FB01238121FD03C08FEF9FEF2CC022FFF9
:100D600016C046815781248135814217530744F4C8
:100D7000A081B1819D012F5F3F4F318320838C93F0
:100D8000268137812F5F3F4F3783268314C08B0125
:100D9000EC01FB010084F185E02D0995892BE1F63A
:100DA000D80116968D919C911797019617969C9352
:100DB0008E931697CE01DF91CF911F910F910895D9
:100DC000FA01AA27283051F1203181F1E8946F937C
:100DD0006E7F6E5F7F4F8F4F9F4FAF4FB1E03ED022
:100DE000B4E03CD0670F781F891F9A1FA11D680FC0
:100DF000791F8A1F911DA11D6A0F711D811D911DF3
:100E0000A11D20D009F468943F912AE0269F112467
:100E10003019305D3193DEF6CF010895462F4770CB
:100E2000405D4193B3E00FD0C9F7F6CF462F4F7026
:100E3000405D4A3318F0495D31FD4052419302D084
:100E4000A9F7EACFB4E0A69597958795779567952A
:100E5000BA95C9F700976105710508959B01AC012A
:100E60000A2E06945795479537952795BA95C9F751
:100E7000620F731F841F951FA01D08952F923F922C
:100E80004F925F926F927F928F929F92AF92BF929A
:100E9000CF92DF92EF92FF920F931F93CF93DF9346
:100EA000CDB7DEB7CA1BDB0B0FB6F894DEBF0FBEA3
:100EB000CDBF09942A88398848885F846E847D84F0
:100EC0008C849B84AA84B984C884DF80EE80FD80F2
:100ED0000C811B81AA81B981CE0FD11D0FB6F89468
:0E0EE000DEBF0FBECDBFED010895F894FFCF29
:100EEE0000000000C80131015F01150290016E0182
:100EFE008201256875203A20256875203A202566DE
:060F0E002056000D0A0050
:107E0000112484B714BE81FFF0D085E080938100F7
:107E100082E08093C00088E18093C10086E0809377
:107E2000C20080E18093C4008EE0C9D0259A86E02C
:107E300020E33CEF91E0309385002093840096BBD3
:107E4000B09BFECF1D9AA8958150A9F7CC24DD24C4
:107E500088248394B5E0AB2EA1E19A2EF3E0BF2EE7
:107E6000A2D0813461F49FD0082FAFD0023811F036
:107E7000013811F484E001C083E08DD089C08234E0
:107E800011F484E103C0853419F485E0A6D080C0E4
:107E9000853579F488D0E82EFF2485D0082F10E0AE
:107EA000102F00270E291F29000F111F8ED06801E7
:107EB0006FC0863521F484E090D080E0DECF843638
:107EC00009F040C070D06FD0082F6DD080E0C81688
:107ED00080E7D80618F4F601B7BEE895C0E0D1E017
:107EE00062D089930C17E1F7F0E0CF16F0E7DF06D8
:107EF00018F0F601B7BEE89568D007B600FCFDCFD4
:107F0000A601A0E0B1E02C9130E011968C91119780
:107F100090E0982F8827822B932B1296FA010C0160
:107F200087BEE89511244E5F5F4FF1E0A038BF0790
:107F300051F7F601A7BEE89507B600FCFDCF97BE46
:107F4000E89526C08437B1F42ED02DD0F82E2BD052
:107F50003CD0F601EF2C8F010F5F1F4F84911BD097
:107F6000EA94F801C1F70894C11CD11CFA94CF0C13
:107F7000D11C0EC0853739F428D08EE10CD085E9AC
:107F80000AD08FE07ACF813511F488E018D01DD067
:107F900080E101D065CF982F8091C00085FFFCCF94
:107FA0009093C60008958091C00087FFFCCF809118
:107FB000C00084FD01C0A8958091C6000895E0E648
:107FC000F0E098E1908380830895EDDF803219F02E
:107FD00088E0F5DFFFCF84E1DECF1F93182FE3DFCA
:107FE0001150E9F7F2DF1F91089580E0E8DFEE27F6
:047FF000FF270994CA
:027FFE00040479
:0400000300007E007B
:00000001FF
