:100000000C945D000C9485000C9485000C94850084
:100010000C9485000C9485000C9485000C9485004C
:100020000C9485000C9485000C9485000C94CC05F0
:100030000C9485000C9485000C9485000C9485002C
:100040000C942A050C9485000C949A050C94740564
:100050000C9485000C9485000C9485000C9485000C
:100060000C9485000C9485000000000024002700FB
:100070002A0000000000250028002B0004040404CE
:100080000404040402020202020203030303030342
:10009000010204081020408001020408102001021F
:1000A00004081020000000080002010000030407FB
:1000B00000000000000000008D0611241FBECFEFDD
:1000C000D8E0DEBFCDBF11E0A0E0B1E0EAE0F1E1B1
:1000D00002C005900D92A231B107D9F726E0A2E146
:1000E000B1E001C01D92A130B207E1F710E0CDE50B
:1000F000D0E004C02197FE010E947808CC35D107DA
:10010000C9F70E941B070C9483080C9400000F93FE
:100110001F93CF93DF93EDEFF4E080819181A0E016
:10012000B0E0C5EFD4E0488159816A817B81480FF6
:10013000591F6A1F7B1F488359836A837B83C9EFDA
:10014000D4E0488159816A817B818A019B01081B27
:10015000190B2A0B3B0B088319832A833B831182DB
:100160001082DF91CF911F910F910895CF92DF926E
:10017000EF92FF92DC01A03282E0B8070CF03EC0A3
:10018000B7FD06C0A53BB1052CF0A4EBB0E002C062
:10019000A0E0B0E08091EB0228E830E06901C81AE5
:1001A000D10887FDD394CC0CDD1CCC0CDD1C0D2CB0
:1001B000000CEE08FF088091EC0228E532E0281BD5
:1001C000310987FD3395220F331F220F331FA901F9
:1001D000330F660B770B9A01AB012C193D094E09C1
:1001E0005F090E94330824EB30E040E050E00E94B9
:1001F0000908C20ED31EE41EF51ED6019091EA0234
:100200009C3098F58091EB0248E850E0481B51097A
:1002100087FD5395440F551F440F551FA417B5076D
:100220008CF08091EC0228E532E0281B310987FD33
:100230003395220F331F220F331FAD012A173B07BF
:100240000CF4A90142505109440F551F2FB7F894DF
:10025000892F90E0FC01EE0FFF1F8E0F9F1FFC0106
:10026000EB53FD4F528341832FBFFF90EF90DF9000
:10027000CF90089590E0FC01EC55FF4F2491FC01D4
:10028000E057FF4F3491FC01E458FF4FE491EE2317
:1002900009F43CC0222339F1233091F038F42130A5
:1002A000A9F0223001F584B58F7D12C0273091F07E
:1002B0002830A1F02430B9F4809180008F7D03C0F4
:1002C000809180008F77809380000DC084B58F77F8
:1002D00084BD09C08091B0008F7703C08091B000C9
:1002E0008F7D8093B000F0E0EE0FFF1FEE58FF4FC0
:1002F000A591B4919FB7F894611104C08C91309589
:10030000382302C0EC913E2B3C939FBF0895CF92BF
:10031000DF92EF92FF920F931F93CF93DF936C01C5
:100320007A018B01C0E0D0E0CE15DF0581F0D80165
:100330006D918D01D601ED91FC910190F081E02D40
:10034000C6010995892B11F02196EECF7E01C701D8
:10035000DF91CF911F910F91FF90EF90DF90CF90A1
:100360000895089580E090E00895FC01538D448D38
:10037000252F30E0842F90E0821B930B541710F050
:10038000CF96089501970895FC01918D828D98175D
:1003900061F0828DDF01A80FB11D5D968C91928D69
:1003A0009F5F9F73928F90E008958FEF9FEF089566
:1003B000FC01918D828D981731F0828DE80FF11D2F
:1003C000858D90E008958FEF9FEF0895FC01918D4A
:1003D000228D892F90E0805C9F4F821B91098F7343
:1003E0009927089588E292E00E94E60121E0892B96
:1003F00009F420E0822F0895FC01848DDF01A80F0D
:10040000B11DA35ABF4F2C91848D90E001968F733C
:100410009927848FA689B7892C93A089B1898C915B
:10042000837080648C93938D848D981306C00288AA
:10043000F389E02D80818F7D80830895EF92FF9274
:100440000F931F93CF93DF93EC0181E0888F9B8DF7
:100450008C8D981305C0E889F989808185FD26C0B7
:10046000F62E0B8D10E00F5F1F4F0F731127E02E3C
:100470008C8DE8120CC00FB607FCFACFE889F98919
:10048000808185FFF5CFCE010E94FC01F1CF8B8DDD
:10049000FE01E80FF11DE35AFF4FF0829FB7F89479
:1004A0000B8FEA89FB89808180620AC09FB7F8942C
:1004B000EE89FF896083E889F9898081837080648F
:1004C00080839FBF81E090E0DF91CF911F910F91DA
:1004D000FF90EF900895CF93DF93EC01888D8823F0
:1004E000C9F0EA89FB89808185FD05C0A889B989A1
:1004F0008C9186FD0FC00FB607FCF5CF808185FF7C
:10050000F2CFA889B9898C9185FFEDCFCE010E94E9
:10051000FC01E7CFDF91CF9108952F923F924F9248
:100520005F926F927F928F929F92AF92BF92CF9283
:10053000DF92EF92FF920F931F93CF93DF93CDB78C
:10054000DEB7CD50D1400FB6F894DEBF0FBECDBFA1
:1005500088E292E00E94E601181619060CF058C2D3
:1005600009E112E02FB7F8948091240290912502BE
:10057000A0912602B09127022FBF80933002909362
:100580003102A0933202B093330288E292E00E94DB
:10059000C40197FFBEC12FB7F894809124029091B7
:1005A0002502A0912602B09127022FBF4091300270
:1005B000509131026091320270913302841B950B8D
:1005C000A60BB70B40912C0250912D0260912E0288
:1005D00070912F0284179507A607B707B0F285E040
:1005E000E9E1F2E0A4E1B2E001900D928A95E1F731
:1005F0008091F9049091FA04A091FB04B091FC045D
:100600004091ED025091EE026091EF027091F00284
:10061000481B590B6A0B7B0B453051056105710571
:1006200008F440C04090F1025090F2026090F30252
:100630007090F402C090F504D090F604E090F704B6
:10064000F090F80444E1842E42E0942E40E050E023
:10065000BA01C80ED91EEA1EFB1EF401B1904F016B
:1006600097018601040F151F261F371F042115212E
:100670002621372103511D4FF801B0864F5F5F4F90
:100680006F4F7F4F453051056105710531F7059674
:10069000A11DB11D8093F9049093FA04A093FB046B
:1006A000B093FC0401E010E032E0232E312C0EC0A8
:1006B0008091FF04909100058130910509F44FC0AD
:1006C0008230910509F457C1892BE9F04090F90473
:1006D0005090FA046090FB047090FC04CB5FDE4FF6
:1006E000488259826A827B82C550D1402091FD04A4
:1006F0003091FE04A90160E070E0441655066606DC
:100700007706B1F638C12F5F3F4F3093FE04209338
:10071000FD048091F5049091F604A091F704B09146
:10072000F804480F591F6A1F7B1F8091F1029091B6
:10073000F202A091F302B091F402482359236A23F4
:100740007B23FA01E351FD4F8085811105C0109391
:1007500000050093FF04BACF0E948700B7CF39018C
:100760008FEF681A780A7092FE046092FD04C090C0
:10077000F102D090F202E090F302F090F402809047
:10078000F5049090F604A090F704B090F804DB0113
:10079000CA01880D991DAA1DBB1DC75FDE4F888346
:1007A0009983AA83BB83C950D1408C219D21AE215E
:1007B000BF21CF5FDE4F88839983AA83BB83C1505B
:1007C000D140FC01E351FD4FE085E11196C010924C
:1007D00000061092FF0594E06916710408F4A2C0A7
:1007E000D501C4010196A11DB11D8C219D21AE2111
:1007F000BF21FC01E351FD4FA085C35FDE4FA883FD
:10080000CD50D1408A2F90E0019624013501480E49
:10081000591E611C711C4C205D206E207F20CF5F13
:10082000DE4F488259826A827B82C150D140F201F8
:10083000E351FD4FE0858E0F911D2817390729F4EC
:10084000E1E0F5E082E090E034C028173907E8F6EF
:1008500069C0C35FDE4F2881CD50D1402150C35FB6
:10086000DE4F2883CD50D140C090F102D090F202EB
:10087000E090F302F090F4024091F5045091F604F8
:100880006091F7047091F8044C01A12CB12C480D33
:10089000591D6A1D7B1D4C215D216E217F21222364
:1008A000A9F043515D4FDA0118962C9120830196EF
:1008B00031962091FD043091FE0423503109AC01A2
:1008C000425051094217530720F20CC0DA01A351DC
:1008D000BD4F18964C90C35FDE4F4882CD50D1403B
:1008E0001082E5CF309300062093FF050E94870019
:1008F000309200052092FF043EC021E0621672068D
:1009000009F0E4CE0E948700109200051092FF04C7
:10091000DDCED8018D938D01B2E00E311B0709F0B9
:1009200021CE5DCEC75FDE4F488059806A807B80D4
:10093000C950D1404092F5045092F6046092F704F9
:100940007092F804CB5FDE4F88819981AA81BB81C8
:10095000C550D140841B950BA60BB70B8093F904AF
:100960009093FA04A093FB04B093FC041093FE044C
:100970000093FD04ABCE8091FF0490910005029797
:1009800009F046C0109200051092FF0480E0E1E0FB
:10099000F5E0DE01119601900D928A95E1F780E075
:1009A000FE013196A4E1B1E001900D928A95E1F744
:1009B0008EEFE4E1F1E0A2E1B1E001900D928A95C1
:1009C000E1F72091120130911301A8E6B1E00E94F5
:1009D0005D08DC01CB012CE0B695A795979587952E
:1009E0002A95D1F78A309105A105B10550F08B3ACF
:1009F0009105A105B10548F08AEA90E0A0E0B0E0D9
:100A000004C08AE090E0A0E0B0E00E94B6005ECEB4
:100A1000C35FDE4F0FB6F894DEBF0FBECDBFDF91D0
:100A2000CF911F910F91FF90EF90DF90CF90BF90EB
:100A3000AF909F908F907F906F905F904F903F907E
:100A40002F9008950E94F20181110C948D02089557
:100A50000E947E081F920F920FB60F9211242F93BF
:100A60003F938F939F93AF93BF9380912402909174
:100A70002502A0912602B09127023091230223E0A3
:100A8000230F2D3720F40196A11DB11D05C026E8C6
:100A9000230F0296A11DB11D2093230280932402EF
:100AA00090932502A0932602B093270280911F0203
:100AB00090912002A0912102B09122020196A11DE5
:100AC000B11D80931F0290932002A0932102B09346
:100AD0002202BF91AF919F918F913F912F910F90E3
:100AE0000FBE0F901F9018951F920F920FB60F9286
:100AF00011242F933F934F935F936F937F938F9323
:100B00009F93AF93BF93EF93FF9388E292E00E948D
:100B1000FC01FF91EF91BF91AF919F918F917F91D8
:100B20006F915F914F913F912F910F900FBE0F905A
:100B30001F9018951F920F920FB60F9211242F93AA
:100B40008F939F93EF93FF93E0913802F0913902D6
:100B50008081E0913E02F0913F0282FD12C09081BF
:100B6000809141028F5F8F7320914202821751F072
:100B7000E0914102F0E0E85DFD4F958F80934102E6
:100B800001C08081FF91EF919F918F912F910F90E4
:100B90000FBE0F901F9018951F920F920FB60F92D5
:100BA00011242F933F934F935F936F937F938F9372
:100BB0009F93AF93BF93EF93FF9380911E0287FFA4
:100BC00005C010928500109284001BC020911E0267
:100BD000022E000C330B8091E90290E028173907B0
:100BE00084F480911E02082E000C990BFC01EE0F7C
:100BF000FF1F8E0F9F1FFC01EB53FD4F808186FD71
:100C000015C080911E028F5F80931E0220911E02EC
:100C1000022E000C330B8091E90290E0281739076F
:100C2000C4F480911E028C3064F113C080911E02C6
:100C3000082E000C990BFC01EE0FFF1F8E0F9F1F5B
:100C4000FC01EB53FD4F808160E08F730E943A01FD
:100C5000D8CF8091840090918500049680349C497F
:100C600018F480E49CE905C080918400909185008F
:100C7000049690938900809388008FEF80931E02E2
:100C80003BC0209184003091850080911E02082E87
:100C9000000C990BFC01EE0FFF1F8E0F9F1FFC0134
:100CA000EB53FD4F81819281820F931F90938900B6
:100CB0008093880080911E02082E000C990BFC0185
:100CC000EE0FFF1F8E0F9F1FFC01EB53FD4F808126
:100CD00086FF12C080911E02082E000C990BFC01A9
:100CE000EE0FFF1F8E0F9F1FFC01EB53FD4F808106
:100CF00061E08F730E943A01FF91EF91BF91AF9134
:100D00009F918F917F916F915F914F913F912F9123
:100D10000F900FBE0F901F90189510922B021092FB
:100D20002A0288EE93E0A0E0B0E080932C0290933A
:100D30002D02A0932E02B0932F0284E091E09093B5
:100D400029028093280285EC90E0909335028093ED
:100D5000340284EC90E0909337028093360280EC6A
:100D600090E0909339028093380281EC90E0909368
:100D70003B0280933A0282EC90E090933D02809394
:100D80003C0286EC90E090933F0280933E021092EA
:100D9000410210924202109243021092440280E0FB
:100DA00092E0A0E0B0E08093ED029093EE02A09379
:100DB000EF02B093F0028FEF91E0A0E0B0E08093FB
:100DC000F1029093F202A093F302B093F402109216
:100DD000F5041092F6041092F7041092F8041092A1
:100DE000F9041092FA041092FB041092FC04109281
:100DF000FE041092FD04109200051092FF048091F1
:100E0000E9028C30A0F491E0980F9093E90280936E
:100E1000EA0290E0FC01EE0FFF1F8E0F9F1FFC0106
:100E2000EB53FD4F88EB9BE09283818308958FEF16
:100E30008093EA020895789484B5826084BD84B575
:100E4000816084BD85B5826085BD85B5816085BDC5
:100E500080916E00816080936E001092810080917D
:100E60008100826080938100809181008160809305
:100E70008100809180008160809380008091B1002A
:100E800084608093B1008091B00081608093B00055
:100E900080917A00846080937A0080917A008260E9
:100EA00080937A0080917A00816080937A008091AB
:100EB0007A00806880937A001092C100E091380235
:100EC000F091390282E08083E0913402F0913502A2
:100ED0001082E0913602F09137028FEC80831092FD
:100EE0004002E0913C02F0913D0286E08083E09177
:100EF0003A02F0913B02808180618083E0913A0266
:100F0000F0913B02808188608083E0913A02F09109
:100F10003B02808180688083E0913A02F0913B023D
:100F200080818F7D80838091EA028C3008F068C0D8
:100F3000EAE9F0E02491E6E8F0E08491882399F072
:100F400090E0880F991FFC01E859FF4FA591B491DB
:100F5000FC01EE58FF4F859194918FB7F894EC9176
:100F6000E22BEC938FBF8091EA02E82FF0E09F0123
:100F7000220F331FE20FF31FEB53FD4F9081907C44
:100F80009A6090831092EB021092EC026CE00E9447
:100F90006C089CE0899FB001112440E050E09B0167
:100FA000240F351FF901EE0FFF1F2E0F3F1FF90110
:100FB000EB53FD4F908196FD16C04F5F5F4F4C3055
:100FC000510569F781110FC01092800082E0809373
:100FD00081001092850010928400B19A80916F0078
:100FE000826080936F00E091EA02F0E0CF01880F09
:100FF000991FE80FF91FEB53FD4F808180648083B8
:101000008AE590E00E94B6000E948D020E942205AF
:10101000FBCF052E97FB1EF400940E94200857FD7D
:1010200007D00E943B0807FC03D04EF40C94200824
:1010300050954095309521953F4F4F4F5F4F089504
:1010400090958095709561957F4F8F4F9F4F089534
:101050000E945D08A59F900DB49F900DA49F800DE8
:10106000911D11240895B7FF0C9428080E942808A8
:10107000821B930B0895A1E21A2EAA1BBB1BFD0134
:101080000DC0AA1FBB1FEE1FFF1FA217B307E40767
:10109000F50720F0A21BB30BE40BF50B661F771FBF
:1010A000881F991F1A9469F760957095809590959F
:1010B0009B01AC01BD01CF010895A29FB001B39F78
:1010C000C001A39F700D811D1124911DB29F700D51
:1010D000811D1124911D0895991B79E004C0991F69
:1010E000961708F0961B881F7A95C9F78095089582
:1010F000EE0FFF1F0590F491E02D099481E090E040
:0A110000F8940C948308F894FFCFD4
:10110A00000000001E028701B5016B02E601C4015E
:02111A00D801FA
:107E0000112484B714BE81FFF0D085E080938100F7
:107E100082E08093C00088E18093C10086E0809377
:107E2000C20080E18093C4008EE0C9D0259A86E02C
:107E300020E33CEF91E0309385002093840096BBD3
:107E4000B09BFECF1D9AA8958150A9F7CC24DD24C4
:107E500088248394B5E0AB2EA1E19A2EF3E0BF2EE7
:107E6000A2D0813461F49FD0082FAFD0023811F036
:107E7000013811F484E001C083E08DD089C08234E0
:107E800011F484E103C0853419F485E0A6D080C0E4
:107E9000853579F488D0E82EFF2485D0082F10E0AE
:107EA000102F00270E291F29000F111F8ED06801E7
:107EB0006FC0863521F484E090D080E0DECF843638
:107EC00009F040C070D06FD0082F6DD080E0C81688
:107ED00080E7D80618F4F601B7BEE895C0E0D1E017
:107EE00062D089930C17E1F7F0E0CF16F0E7DF06D8
:107EF00018F0F601B7BEE89568D007B600FCFDCFD4
:107F0000A601A0E0B1E02C9130E011968C91119780
:107F100090E0982F8827822B932B1296FA010C0160
:107F200087BEE89511244E5F5F4FF1E0A038BF0790
:107F300051F7F601A7BEE89507B600FCFDCF97BE46
:107F4000E89526C08437B1F42ED02DD0F82E2BD052
:107F50003CD0F601EF2C8F010F5F1F4F84911BD097
:107F6000EA94F801C1F70894C11CD11CFA94CF0C13
:107F7000D11C0EC0853739F428D08EE10CD085E9AC
:107F80000AD08FE07ACF813511F488E018D01DD067
:107F900080E101D065CF982F8091C00085FFFCCF94
:107FA0009093C60008958091C00087FFFCCF809118
:107FB000C00084FD01C0A8958091C6000895E0E648
:107FC000F0E098E1908380830895EDDF803219F02E
:107FD00088E0F5DFFFCF84E1DECF1F93182FE3DFCA
:107FE0001150E9F7F2DF1F91089580E0E8DFEE27F6
:047FF000FF270994CA
:027FFE00040479
:0400000300007E007B
:00000001FF
