:100000000C9467000C948F000C948F000C948F005C
:100010000C948F000C948F000C94CF050C948F00DF
:100020000C948F000C948F000C948F000C94600142
:100030000C948F000C948F000C948F000C948F0004
:100040000C946E030C948F000C948F000C948F0012
:100050000C948F000C948F000C948F000C948F00E4
:100060000C948F000C948F000C0B0C0B0C0B450B9D
:10007000300B3F0B0C0B0C0B450B300B000000083A
:10008000000201000003040700000000000000005F
:1000900000000000250028002B00000000002400C4
:1000A00027002A00040404040404040402020202D7
:1000B000020203030303030301020408102040802B
:1000C000010204081020010204081020950C1124DC
:1000D0001FBECFEFD8E0DEBFCDBF11E0A0E0B1E0A2
:1000E000E2E1F2E202C005900D92AA31B107D9F720
:1000F00021E0AAE1B1E001C01D92A33DB207E1F702
:1001000010E0C7E6D0E004C02197FE010E94D00FA6
:10011000C636D107C9F70E94850B0C9407110C94C1
:100120000000E0914601F09147018081811103C0F8
:100130008FEF9FEF0CC0E0914601F09147010580E1
:10014000F681E02D0680F781E02D828193819093E6
:100150003B0180933A01089561E08DE00E94210304
:100160008DE290E00E947E020E94460260E08DE0F7
:100170000E9421038AE590E00E947E020E944602CE
:10018000EBCF0F931F938DE00E94020360E08DE0A0
:100190000E9421038091B0018C3008F050C08BE0A8
:1001A0000E9402038091B001E82FF0E09F01220F2E
:1001B000331FE20FF31FE457FE4F9081907C9B604A
:1001C00090831092B1011092B2016CE00E94C40FB2
:1001D0009CE0899FB001112440E050E09B01240F76
:1001E000351FF901EE0FFF1F2E0F3F1FF901E457D6
:1001F000FE4F908196FD16C04F5F5F4F4C3051050A
:1002000069F781110FC01092800082E08093810015
:100210001092850010928400B19A80916F008260E4
:1002200080936F00E091B001F0E0CF01880F991F3B
:10023000E80FF91FE457FE4F80818064808300E05F
:1002400010E022E040E850E066E071E08CEA90E0E7
:100250000E94AE0D1F910F91089500E010E0809173
:100260001F01882309F10FB6F8940F92E09156010F
:10027000F0915701C681D781CE0102960E94F30505
:1002800080918B01815080938B0180911F0181505F
:1002900080931F010F900FBE8F89988D0E94970940
:1002A000CE010E949709DBCF80916301823010F06C
:1002B0000E9499060115110591F20E940000CFCF0E
:1002C0001F920F920FB60F9211242F933F934F93CB
:1002D0005F936F937F938F939F93AF93BF93EF93AE
:1002E000FF9380911B0187FF05C01092850010923B
:1002F00084001BC020911B01022E000C330B809147
:100300001A0190E02817390784F480911B01082E08
:10031000000C990BFC01EE0FFF1F8E0F9F1FFC01BD
:10032000E457FE4F808186FD15C080911B018F5FD1
:1003300080931B0120911B01022E000C330B809136
:100340001A0190E028173907C4F480911B018C3002
:1003500064F113C080911B01082E000C990BFC0165
:10036000EE0FFF1F8E0F9F1FFC01E457FE4F808191
:1003700060E08F730E942103D8CF80918400909118
:100380008500049680349C4918F480E49CE905C0FB
:1003900080918400909185000496909389008093C9
:1003A00088008FEF80931B013BC020918400309127
:1003B000850080911B01082E000C990BFC01EE0FAB
:1003C000FF1F8E0F9F1FFC01E457FE4F818192811A
:1003D000820F931F909389008093880080911B0166
:1003E000082E000C990BFC01EE0FFF1F8E0F9F1FB4
:1003F000FC01E457FE4F808186FF12C080911B01F3
:10040000082E000C990BFC01EE0FFF1F8E0F9F1F93
:10041000FC01E457FE4F808161E08F730E9421034D
:10042000FF91EF91BF91AF919F918F917F916F91CC
:100430005F914F913F912F910F900FBE0F901F90A2
:1004400018953FB7F8948091B8019091B901A091A7
:10045000BA01B091BB0126B5A89B05C02F3F19F08A
:100460000196A11DB11D3FBFBA2FA92F982F882734
:10047000820F911DA11DB11DBC01CD0142E0660F8F
:10048000771F881F991F4A95D1F708958F929F92E1
:10049000AF92BF92CF92DF92EF92FF920E94210221
:1004A0004B015C0184EFC82EDD24D394E12CF12CA8
:1004B0000E942102DC01CB0188199909AA09BB0914
:1004C000883E9340A105B10598F321E0C21AD108F6
:1004D000E108F10888EE880E83E0981EA11CB11C8B
:1004E000C114D104E104F10419F7FF90EF90DF90FB
:1004F000CF90BF90AF909F908F900895CF92DF9252
:10050000EF92FF92DC01A03282E0B8070CF03EC00F
:10051000B7FD06C0A53BB1052CF0A4EBB0E002C0CE
:10052000A0E0B0E08091B10128E830E06901C81A8C
:10053000D10887FDD394CC0CDD1CCC0CDD1C0D2C1C
:10054000000CEE08FF088091B20128E532E0281B7C
:10055000310987FD3395220F331F220F331FA90165
:10056000330F660B770B9A01AB012C193D094E092D
:100570005F090E948B0F24EB30E040E050E00E94C6
:10058000610FC20ED31EE41EF51ED6019091B0017C
:100590009C3098F58091B10148E850E0481B510922
:1005A00087FD5395440F551F440F551FA417B507DA
:1005B0008CF08091B20128E532E0281B310987FDDB
:1005C0003395220F331F220F331FAD012A173B072C
:1005D0000CF4A90142505109440F551F2FB7F8944C
:1005E000892F90E0FC01EE0FFF1F8E0F9F1FFC0173
:1005F000E457FE4F528341832FBFFF90EF90DF906F
:10060000CF90089590E0FC01E854FF4F2491FC0145
:10061000EC55FF4F8491882399F090E0880F991F43
:10062000FC01E656FF4FA591B491FC01E057FF4F46
:10063000859194918FB7F894EC91E22BEC938FBF56
:10064000089590E0FC01E458FF4F2491FC01E85428
:10065000FF4F3491FC01EC55FF4FE491EE2309F478
:100660003CC0222339F1233091F038F42130A9F035
:10067000223001F584B58F7D12C0273091F02830EB
:10068000A1F02430B9F4809180008F7D03C0809167
:1006900080008F77809380000DC084B58F7784BDF4
:1006A00009C08091B0008F7703C08091B0008F7D2A
:1006B0008093B000F0E0EE0FFF1FE057FF4FA591D1
:1006C000B4919FB7F894611104C08C913095382390
:1006D00002C0EC913E2B3C939FBF08951F920F9256
:1006E0000FB60F9211242F933F938F939F93AF9345
:1006F000BF938091B4019091B501A091B601B091E2
:10070000B7013091B30123E0230F2D3720F4019678
:10071000A11DB11D05C026E8230F0296A11DB11D24
:100720002093B3018093B4019093B501A093B601D7
:10073000B093B7018091B8019091B901A091BA012D
:10074000B091BB010196A11DB11D8093B80190939A
:10075000B901A093BA01B093BB01BF91AF919F9132
:100760008F913F912F910F900FBE0F901F90189572
:100770000FB6F8940F9280914101909142010F9031
:100780000FBE08950FB6F8940F92FC01928D0F9052
:100790000FBE81E0911180E008950F920FB6F8949A
:1007A0000F921F9211242F923F924F925F926F925D
:1007B0007F928F929F92AF92BF92CF92DF92EF92F1
:1007C000FF920F931F932F933F934F935F936F93DA
:1007D0007F938F939F93AF93BF93CF93DF93EF93C9
:1007E000FF93A0918901B0918A010DB60D920EB6CA
:1007F0000D9213BE80913E018111F7C0809141019D
:10080000909142010196909342018093410100979B
:1008100099F5209146013091470140914401509152
:100820004501509347014093460130934501209381
:100830004401209143012F5F20934301E091460141
:10084000F09147012081211107C02FEF3FEF309336
:100850003B0120933A0110C0E0914601F09147011D
:100860000580F681E02D0680F781E02D228133811D
:1008700030933B0120933A0120913A0130913B01A2
:100880008217930708F49CC020E019E0E09146012C
:10089000F09147013081311107C08FEF9FEF9093A6
:1008A0003B0180933A018DC0E0914601F0914701F0
:1008B0000580F681E02D0680F781E02D428153818D
:1008C0008417950728F450933B0140933A0179C06F
:1008D000AF014E5F5F4FA285B38564817581E6806D
:1008E000F780EB01FD82EC82C681D7817B836A832E
:1008F00011966D917C9112974617570721F4129625
:10090000DC93CE931197138612863C9131503C9321
:100910003C91A489B5891097F9F066857785E088C0
:10092000F188EB01FD82EC82C089D1897B836A83E7
:100930001196ED90FC901297BF01645F7F4FE61611
:10094000F70621F41296DC93CE931197158A148A38
:100950003C9131503C933C91A689309187013A17E4
:1009600010F4A09387011A9FD0011124BD016D5985
:100970007E4F7B01DB011196CD91DC911297D583DF
:10098000C4836C817D81778366836C817D81DB018B
:1009900013965C934E9312975D834C83F386E286A5
:1009A000E70138813F5F3883A0918901B0918A01C6
:1009B000468956963C91431708F468CF21E066CFEC
:1009C00020E0E0918901F0918A01E689D9E0ED9F6C
:1009D000F0011124ED59FE4F8081823008F021E0B2
:1009E00080911E0181110EC00AC080911C0190915E
:1009F0001D01019690931D0180931C0169C0222363
:100A000009F466C080913E01882321F081E0809343
:100A10001E015EC010921E01A0918901B0918A0151
:100A2000E0918901F0918A012D913C918789908D07
:100A300082179307A8F08091890190918A01809193
:100A4000890190918A01259A2D9A2FEF67EA71E624
:100A5000215060407040E1F700C000001D9AF5CFC2
:100A60008091870169E001C08150482F50E0649F68
:100A70009001659F300D1124F901ED59FE4F9081D1
:100A8000992391F3A181B28112960D90BC91A02D72
:100A9000B283A1832A593E4FA217B30731F41296AD
:100AA0002D913C9113973283218399E0949FF0011B
:100AB000959FF00D1124ED59FE4F0180F281E02D3C
:100AC0002681378130938A012093890180938701A1
:100AD000A0918901B0918A01CD91CDBFDD91DEBF9A
:100AE000FF91EF91DF91CF91BF91AF919F918F9146
:100AF0007F916F915F914F913F912F911F910F9136
:100B0000FF90EF90DF90CF90BF90AF909F908F902D
:100B10007F906F905F904F903F902F901F900F901D
:100B20000FBE0F900895FC01DB010FB6F8940F92F1
:100B300040914101509142012D913C9111972F3FDD
:100B40008FEF380701F181819281609143017081BB
:100B5000761719F048175907C0F4481B590B42176C
:100B6000530770F4241B350B2D933C938091430164
:100B7000808380914101909142019283818303C0DF
:100B80001D921C9202C080E001C081E00F900FBE58
:100B9000089580913E018F5F80933E0108950E94E9
:100BA000CD031895CF93DF939C01FB01DC011196D7
:100BB000CD91DC911297D383C2838C819D819583E3
:100BC00084838C819D81DC0113967C936E931297B4
:100BD0007D836C8331872087F90180818F5F8083DB
:100BE000DF91CF910895CF93DF93FC01A085B1856C
:100BF0008281938124813581EC013D832C83C481E2
:100C0000D5819B838A8311968D919C911297E817C9
:100C1000F90721F41296DC93CE9311971186108672
:100C20008C9181508C938C91DF91CF9108950F938B
:100C30001F93CF93DF93DC011596ED91FC911697EE
:100C4000C681D7818E01045F1F4FC8010E94F30542
:100C500080913E01811114C00A501109C8010E94FF
:100C6000F3058E8990918701981710F4809387017E
:100C7000B9E08B9FC0011124B8018D599E4F03C06C
:100C8000B8018AE591E00E94D205E0918901F091D6
:100C90008A019E898689891720F481E080931E014C
:100CA00001C080E0DF91CF911F910F910895EF92E5
:100CB000FF920F931F93CF93DF93EC010FB6F8943D
:100CC0000F921E8D7C0181E1E80EF11C01E01116EE
:100CD0005CF48989882341F0C7010E9417068111BD
:100CE00000931E011150F3CF8FEF8E8F0F900FBE28
:100CF0000FB6F8940F921D8D7E0188E0E80EF11C6E
:100D000001E011165CF48885882341F0C7010E9438
:100D10001706811100931E011150F3CF8FEF8D8FB5
:100D20000F900FBEDF91CF911F910F91FF90EF9029
:100D300008950F920FB6F8940F921F9211242F92DC
:100D40003F924F925F926F927F928F929F92AF925B
:100D5000BF92CF92DF92EF92FF920F931F932F9348
:100D60003F934F935F936F937F938F939F93AF9333
:100D7000BF93CF93DF93EF93FF93A0918901B0913D
:100D80008A010DB60D920EB60D9280913E01882318
:100D900021F081E080931E015EC010921E01A0919F
:100DA0008901B0918A01E0918901F0918A012D9128
:100DB0003C918789908D82179307A8F080918901D3
:100DC00090918A018091890190918A01259A2D9AAA
:100DD0002FEF87EA91E6215080409040E1F700C074
:100DE00000001D9AF5CF8091870169E001C0815014
:100DF000482F50E0649F9001659F300D1124F90148
:100E0000ED59FE4F9081992391F3A181B281129601
:100E10000D90BC91A02DB283A1832A593E4FA217F9
:100E2000B30731F412962D913C91139732832183AD
:100E300099E0949FF001959FF00D1124ED59FE4F1C
:100E40000180F281E02D2681378130938A01209341
:100E5000890180938701A0918901B0918A01CD9188
:100E6000CDBFDD91DEBFFF91EF91DF91CF91BF91BB
:100E7000AF919F918F917F916F915F914F913F9132
:100E80002F911F910F91FF90EF90DF90CF90BF9027
:100E9000AF909F908F907F906F905F904F903F901A
:100EA0002F901F900F900FBE0F9008957F928F92FA
:100EB0009F92AF92BF92CF92DF92EF92FF920F93E9
:100EC0001F93CF93DF930FB6F8940F9280913E015A
:100ED000815080933E0180913E01882311F080E093
:100EE000FDC080918B018823D1F3C0E0D0E029E0E0
:100EF000F22EEE24E39480915A01882351F1E0917F
:100F00005F01F0916001C681D781CE010C960E94ED
:100F1000F3058E010E5F1F4FC8010E94F3058E89F5
:100F200090918701981710F480938701F89EC00173
:100F30001124B8018D599E4F0E94D205E09189017C
:100F4000F0918A019E8986899817A8F2E0921E0185
:100F5000D2CFCD2B11F00E949100E0901C01F090B7
:100F60001D01E114F10409F4B1C089E0A82E772431
:100F70007394CC24CA94DC2C80913E01811190C0E2
:100F8000C0914101D09142012196D0934201C0937A
:100F900041012097B9F48091460190914701209139
:100FA00044013091450130934701209346019093CD
:100FB000450180934401809143018F5F80934301F9
:100FC0000E94910080913A0190913B01B12CC81789
:100FD000D90708F451C0E0914601F09147018081A2
:100FE000811105C0D0923B01C0923A0145C0E09109
:100FF0004601F09147010580F681E02D06811781B9
:10100000D80112968D919C911397C817D90728F48F
:1010100090933B0180933A012FC04801B2E08B0EC0
:10102000911CC4010E94F305F80184899589892BDC
:1010300021F0C8010C960E94F305D80156968C91B8
:1010400090918701981710F480938701A89EC001A2
:101050001124B4018D599E4F0E94D205E09189015F
:10106000F0918A01D80156969C918689981708F4C8
:10107000B2CFBB24B394AFCFE0918901F0918A0144
:10108000E689AE9EF0011124ED59FE4F8081823039
:1010900010F0BB24B39480911E0181110CC00AC0D2
:1010A00080911C0190911D01019690931D018093E8
:1010B0001C0103C0B11070921E01B1E0EB1AF108DF
:1010C00009F05ACF10921D0110921C0180911E014F
:1010D000882309F404CF0E94990681E00F900FBE87
:1010E000DF91CF911F910F91FF90EF90DF90CF9004
:1010F000BF90AF909F908F907F9008950F931F9314
:10110000CF93DF938C01FB01808191818F3F2FEF83
:10111000920721F4E801AF81B8850EC0D80113967B
:1011200012962D913C911397E901488159818417BA
:10113000950710F0D901F4CF12968D919C911397D9
:1011400093838283EC01FD83EC83B583A4831396A0
:10115000FC93EE93129711870087F80180818F5FCF
:101160008083DF91CF911F910F910895EF92FF92AD
:101170000F931F93CF93DF93E0912401F09125010A
:101180008081882369F10580F681E02D008111813D
:10119000C681D7817E0182E0E80EF11CC7010E9462
:1011A000F305E889F989CE0109958A8982FFE4CFA0
:1011B0008C859D85800F911F0817190760F49B830C
:1011C0008A83D987C887B70180912401909125012E
:1011D0000E947E08D1CFB801CE010E94380FCCCF3B
:1011E0008091220190912301909325018093240105
:1011F000F0932301E0932201DF91CF911F910F9192
:10120000FF90EF900895FC0173836283918780873C
:101210004617570778F0421B530B8485958548176E
:101220005907C8F4BF016E5F7F4F809122019091F2
:1012300023010DC04217530718F46217730758F4BF
:10124000BF016E5F7F4F80912401909125010E9424
:101250007E0880E0089581E00895FF920F931F9328
:10126000CF93DF93EC01F62E0091410110914201E2
:101270008091890190918A0102960E94F305CF3FE7
:101280008FEFD80789F4FF2079F060918901709180
:101290008A016E5F7F4F88E491E0DF91CF911F91CB
:1012A0000F91FF900C94D205C00FD11FE0918901DE
:1012B000F0918A01D383C2836091890170918A0180
:1012C000C017D10768F480914401909145016E5F89
:1012D0007F4FDF91CF911F910F91FF900C947E086B
:1012E00080914601909147016E5F7F4F0E947E087A
:1012F00080913A0190913B01C817D90720F4D0930F
:101300003B01C0933A01DF91CF911F910F91FF9064
:101310000895FC010396928381832FEF3FEF34837E
:101320002383968385839087878310820895CF9344
:10133000DF93009751F0EC010E94C905CE010E9495
:101340006E10DF91CF910C945607DF91CF910895E5
:10135000CF93DF93CDB7DEB72A970FB6F894DEBFF1
:101360000FBECDBFE0912401F0912501F080FF2058
:1013700031F00580F681E02D0081118102C000E08E
:1013800010E00E94C9050E94B8036C018091200101
:1013900090912101C816D90620F40E94B60881E078
:1013A00001C080E0D0922101C0922001811179C05A
:1013B000FF20A9F1C016D106D0F10E945607E09196
:1013C0002401F09125010580F681E02DE680F7806B
:1013D000C70102960E94F305D70152968C9152974D
:1013E00082FF12C01C966D917C911D97600F711F3A
:1013F0009801A601C7010E940309882341F0B801A2
:10140000C7010E94380F03C08E7FF701828BD7017E
:101410005096ED91FC915197C7010995C6C0E09196
:101420002201F09123018081BB24B3948111B12C5E
:10143000E0903F01F09040010FB6F8940F92F70151
:10144000858D8F3F09F4158ED7015E968C915E973E
:101450008F3F11F45E961C920F900FBEF701828DA4
:10146000811115C06091890170918A01645F7F4F7D
:10147000C70141960E94D205B11004C0C8018C1961
:101480009D0902C08FEF9FEF6B2D0E942D09C701B0
:101490000E9457060E945607811187C00E94990634
:1014A00084C00E94560781C0811109C08091430108
:1014B0008E83809141019091420198878F830F9094
:1014C0000FBE0E94C9050FB6F8940F92D8015D9621
:1014D0008C915D978F3F11F45D961C92F801868D7B
:1014E0008F3F09F4168E0F900FBEBE01675F7F4FCE
:1014F000CE0106960E9493058111DDC0C8010E94AD
:10150000C203882309F4D1C0E984FA846091890177
:1015100070918A01645F7F4FC6010E947E0861E07E
:10152000C7010E942D09C8010E9457060E94560754
:10153000882309F4B7C081E00FB6F8940F92F80140
:10154000F28CFF2009F4A6C0448D41113AC0FA94F0
:10155000F801F28E808581114EC00F900FBEF98088
:10156000F7FC23C00C811D81D8011A968D919C91A6
:101570001B97892B21F0C80102960E94F3050E9457
:10158000B8036C018091200190912101C816D90601
:1015900010F40E94B608D0922101C0922001EF2DD4
:1015A000FF0CFF0BEA30F10580F100913F01109133
:1015B00040011A86198680E06801B1E1CB0ED11C8A
:1015C000BBCF50E086819781840F951F97838683D8
:1015D000248135818217930720F080819181978340
:1015E0008683D80116966D917C911797CE0101964E
:1015F0000E94F710ACCFC80108960E9417068823F6
:1016000009F4ABCF0E949906A8CFEC5CFF4FD8013C
:1016100052968C910C94D00F8160F801828BEA80F5
:10162000FB80648575856E0D7F1D9701A601C8013D
:101630000E940309882309F4B8CFD8015096ED9190
:10164000FC915197C8010995F801828982FFADCFBD
:10165000648575856E0D7F1DC8010E94380FA5CF6A
:101660008160F801828B6A817B81758764876C0D4C
:101670007D1D9601A601C8010E94030996CF81FD38
:1016800004C0C8010E94970990CF8E7FD80152965E
:101690008C938BCF29853A85232B09F005CF0F90AA
:1016A0000FBE60CE0E94990646CFC8010E94570621
:1016B0000E94560740CFC8010E9457060E94560755
:1016C000C8010E94C203882309F435CF4BCECF93C3
:1016D000DF93EC010E94C905CE010E94D60FEC01F8
:1016E0000E945607209769F4259A2D9A2FEF80E7DC
:1016F00092E0215080409040E1F700C000001D9A28
:10170000F5CFCE01DF91CF910895789484B58260B2
:1017100084BD84B5816084BD85B5826085BD85B595
:10172000816085BD80916E00816080936E00109213
:10173000810080918100826080938100809181008E
:10174000816080938100809180008160809380001F
:101750008091B10084608093B1008091B00081607D
:101760008093B00080917A00846080937A008091A9
:101770007A00826080937A0080917A008160809301
:101780007A0080917A00806880937A001092C1007C
:101790000E94C1000CE311E020E040EC50E06CE05E
:1017A00071E08DE291E00E94AE0D813009F0B4C08D
:1017B0000FB6F8940F9280913F0190914001892BD0
:1017C00009F050C08FE291E00E94890986E291E021
:1017D0000E9489098FE291E0909325018093240172
:1017E00086E291E0909323018093220181E590E0CD
:1017F0000E94670BEC01009789F14F9699838883CB
:101800008AE08B8F85E08C8F0FB6F8940F92488119
:1018100059818B8D6C8D9A01869F200D311D11246D
:101820003D832C831A8E5B834A8390E00197689FE7
:101830009001699F300D1124CA01820F931F9F836D
:101840008E838FEF8D8F8E8FCE0108960E9489092F
:10185000CE0141960E9489090F900FBED09340019E
:10186000C0933F010F900FBE80913F0190914001C6
:10187000892B09F451C008E311E023E045E550E06D
:1018800061E171E088EA99E00E94AE0D813009F0D3
:1018900043C0F8942FEF3FEF30933B0120933A0180
:1018A000809388011092420110924101A89590EC1A
:1018B00088E10FB6F894A895809360000FBE9093CE
:1018C0006000A0918901B0918A01CD91CDBFDD91D9
:1018D000DEBFFF91EF91DF91CF91BF91AF919F91CB
:1018E0008F917F916F915F914F913F912F911F91B8
:1018F0000F91FF90EF90DF90CF90BF90AF909F90AF
:101900008F907F906F905F904F903F902F901F909F
:101910000F900FBE0F9008950E94C100C0E0D0E06C
:101920002097F1F30E940000FBCF80911A018C30C8
:10193000A0F491E0980F90931A018093B00190E089
:10194000FC01EE0FFF1F8E0F9F1FFC01E457FE4F9F
:1019500088EB9BE09283818308958FEF8093B001A1
:101960000895AF92BF92CF92DF92EF92FF920F93C2
:101970001F93CF93DF9300D000D01F92CDB7DEB777
:101980008C017B011D821C8280E0680198E0C90EF9
:10199000D11C0FB6F8940F92F801228D938D291760
:1019A00008F06DC0D28C448D41113FC0808191817F
:1019B000892B09F052C0F801E480F580E114F104AC
:1019C00011F480E02EC0F70182A1815082A3268904
:1019D00091A12917B1F38111F4CF5701F2E0AF0EB5
:1019E000B11CC5010E94F305F70181A1868B482F28
:1019F00050E024E030E0241B350B3587248790919C
:101A00008701981710F48093870129E0249FC00173
:101A1000259F900D1124B5018D599E4F0E94D2052E
:101A200081E0F8011582148219C050E0B701F80175
:101A3000828193810E94F710F801248D8281938125
:101A4000820F911D938382832481358182179307AE
:101A500020F0808191819383828380E0D394F80188
:101A6000D28E9189992321F0C80141960E941706D0
:101A700081110E9499060F900FBE81E05FC02C81FA
:101A80003D81232B19F40F900FBE57C0811109C05F
:101A900080914301898380914101909142019B8310
:101AA0008A830F900FBE0E94C9050FB6F8940F925B
:101AB000F801858D8F3F09F4158EF801868D8F3FD3
:101AC00009F4168E0F900FBEBE016C5F7F4FCE01E2
:101AD00001960E94930581112BC00FB6F8940F92C6
:101AE000F801928D838D0F900FBE98131BC0AC80B0
:101AF000BD806091890170918A01645F7F4FC6014A
:101B00000E947E0861E0C5010E942D09C8010E9463
:101B100057060E945607882311F081E03ACF0E94B1
:101B20009906FBCFC8010E9457060E945607F5CFC1
:101B3000C8010E9457060E94560780E00F900F9040
:101B40000F900F900F90DF91CF911F910F91FF9009
:101B5000EF90DF90CF90BF90AF9008957F928F92DB
:101B60009F92AF92BF92CF92DF92EF92FF920F932C
:101B70001F93CF93DF93782EA92E6B01EA01B22E2B
:101B8000CA010E94670B4C01892B09F462C188E2EB
:101B900090E00E94670B7C010097E9F0DC01589609
:101BA0009C928E925797AE0165EA70E0C4010E9444
:101BB00000112197D7015796ED91FC915897EC0FA2
:101BC000FD1FC114D104D9F0B701675E7F4FD60164
:101BD000C601089607C0C4010E9497093AC1A81718
:101BE000B90749F09D014D91EB014993BE01E9010F
:101BF00028812111F4CFD70190961C9202C0E701F1
:101C0000198E8B2D843008F083E0D70156968C9383
:101C1000569791968C93919792961C9292971B96B9
:101C20001C921E921A9755961C921E9254971996C2
:101C3000FC92EE92189724E030E0E901C81BD1092C
:101C40001D96DC93CE931C975396FC92EE9252977E
:101C500093961D921D921D921C92969797961C9298
:101C600091E19083DF01119782E28C93119723E336
:101C70002C9311977C921197AC9211971C9211970B
:101C800020E82C9311971C92119722E02C93119726
:101C900023E02C93119724E02C93119725E02C93AB
:101CA000119726E02C93119727E02C93119728E0A9
:101CB0002C93119729E02C93119720E12C931197E5
:101CC0009C93119792E19C93119793E19C931197A8
:101CD00094E19C93119795E19C93119796E19C93C5
:101CE000119797E19C93119798E19C93119799E133
:101CF0009C93119790E29C93119791E29C9311977A
:101D00008C93119783E28C9311971C9211971C92DC
:101D1000119786E28C93119787E28C93119788E252
:101D20008C93119789E28C93119780E38C93119790
:101D300081E38C93B697E701F983E88301151105D8
:101D400019F0F801F182E0820FB6F8940F928091B9
:101D50008B018F5F80938B018091890190918A0123
:101D6000892BD1F5F0928A01E092890180918B0153
:101D7000813009F043C083E691E00E9489098CE636
:101D800091E00E94890985E791E00E9489098EE728
:101D900091E00E94890985EC91E00E9489098CEB11
:101DA00091E00E9489098AE591E00E94890981E514
:101DB00091E00E94890988E491E00E94890985ECFC
:101DC00091E090934701809346018CEB91E09093D2
:101DD00045018093440112C08091880181110EC099
:101DE000E0918901F0918A019689D70156968C91EC
:101DF000891720F0F0928A01E09289018091CE014A
:101E00008F5F8093CE01E7018E89909187019817AB
:101E100010F480938701D9E08D9FC0011124B70190
:101E20006E5F7F4F8D599E4F0E94D2050F900FBE5F
:101E300080918801882359F0E0918901F0918A010D
:101E40009689F7018689981710F40E94990681E017
:101E500001C08FEFDF91CF911F910F91FF90EF9015
:101E6000DF90CF90BF90AF909F908F907F9008951C
:101E7000CF93DF9300D000D01F92CDB7DEB79C0187
:101E800080913F0190914001009761F019827B831E
:101E90006A833D832C8320918801222329F020919D
:101EA0003E0102C080E005C0BE016F5F7F4F0E940F
:101EB000B10C0F900F900F900F900F90DF91CF917A
:101EC0000895052E97FB1EF400940E94780F57FD8D
:101ED00007D00E94930F07FC03D04EF40C94780FA8
:101EE00050954095309521953F4F4F4F5F4F089546
:101EF00090958095709561957F4F8F4F9F4F089576
:101F00000E94B50FA59F900DB49F900DA49F800DCA
:101F1000911D11240895B7FF0C94800F0E94800F2B
:101F2000821B930B0895A1E21A2EAA1BBB1BFD0175
:101F30000DC0AA1FBB1FEE1FFF1FA217B307E407A8
:101F4000F50720F0A21BB30BE40BF50B661F771F00
:101F5000881F991F1A9469F76095709580959095E0
:101F60009B01AC01BD01CF010895A29FB001B39FB9
:101F7000C001A39F700D811D1124911DB29F700D92
:101F8000811D1124911D0895991B79E004C0991FAA
:101F9000961708F0961B881F7A95C9F780950895C3
:101FA000EE0FFF1F0590F491E02D09940F931F93FE
:101FB000CF93DF938230910510F482E090E0E091BE
:101FC000D101F091D20120E030E0A0E0B0E0309704
:101FD00019F1408151810281138148175907C8F0D6
:101FE0008417950769F4109731F012960C931297A5
:101FF00013961C9327C00093D1011093D20122C0E5
:102000002115310519F04217530718F49A01BD0143
:10201000EF01DF01F801DBCF21153105F9F0281BB5
:10202000390B2430310580F48A819B81611571055B
:1020300021F0FB019383828304C09093D2018093AB
:10204000D101FE01329644C0FE01E20FF31F8193DD
:10205000919322503109398328833AC02091CF01CE
:102060003091D001232B41F42091020130910301E2
:102070003093D0012093CF012091000130910101D4
:102080002115310541F42DB73EB74091040150911F
:102090000501241B350BE091CF01F091D001E2172F
:1020A000F307A0F42E1B3F0B2817390778F0AC017B
:1020B0004E5F5F4F2417350748F04E0F5F1F509358
:1020C000D0014093CF018193919302C0E0E0F0E012
:1020D000CF01DF91CF911F910F910895CF93DF939F
:1020E000009709F481C0FC01329713821282A091FB
:1020F000D101B091D201109781F420813181820FFA
:10210000931F2091CF013091D0012817390751F545
:10211000F093D001E093CF0167C0ED0120E030E003
:10212000CE17DF0740F44A815B819E0141155105BE
:10213000F1F0EA01F5CFD383C28340815181840F4E
:10214000951FC817D90759F488819981840F951F65
:102150000296918380838A819B8193838283211558
:10216000310529F4F093D201E093D1013DC0E9019A
:10217000FB83EA8349915991C40FD51FEC17FD07E2
:1021800061F480819181840F951F0296E901998302
:102190008883828193819B838A83E0E0F0E01296BA
:1021A0008D919C911397009719F0FD01DC01F7CFF9
:1021B0008D919C9111979D012E5F3F4F820F931F30
:1021C0002091CF013091D0012817390769F4309759
:1021D00029F41092D2011092D10102C0138212820E
:1021E000B093D001A093CF01DF91CF910895FB016F
:1021F000DC0102C001900D9241505040D8F7089583
:10220000DC0101C06D9341505040E0F70895F8940F
:02221000FFCFFE
:102212000000D3018000426C696E6B0049444C455A
:0A22220000546D7220537663000033
:00000001FF
