:1000000023C032C031C030C02FC096C02DC02CC01C
:100010002BC02AC029C028C027C026C025C0000088
:100020000000370000000000380002020202020255
:10003000020202020102040810202004100801023A
:10004000000004000000000011241FBECFE5D2E034
:10005000DEBFCDBF20E0A0E6B0E001C01D92A93612
:10006000B207E1F7B3D01CC1CBCFEFE3F0E02491AE
:10007000E5E3F0E09491EBE2F0E0E491EE23C1F0EF
:10008000222329F0223009F1A0F42130D1F0F0E050
:10009000EE0FFF1FEC5DFF4FA591B4912FB7F894C1
:1000A000811116C08C91E92FE095E823EC932FBFC6
:1000B0000895233011F0243051F72CB52F7D2CBD3D
:1000C000E6CF2AB52F772ABDE2CF2AB52F7DFBCF09
:1000D000EC91E92BEBCFCF93DF9390E0FC01EC5C4C
:1000E000FF4F2491865D9F4FFC0184918823D1F0BE
:1000F00090E0880F991FFC01E25EFF4FA591B4913B
:10010000FC01EC5DFF4FC591D49161110EC09FB70A
:10011000F8948C91E22FE0958E238C932881E22332
:10012000E8839FBFDF91CF9108958FB7F894EC914A
:10013000E22BEC938FBFF6CF1F920F920FB60F9268
:1001400011242F933F938F939F93AF93BF938091ED
:10015000650090916600A0916700B09168003091B1
:10016000640020E3230F2D3758F54096A11DB11DE3
:10017000209364008093650090936600A0936700CD
:10018000B09368008091600090916100A09162003E
:10019000B09163000196A11DB11D80936000909302
:1001A0006100A0936200B0936300BF91AF919F91F3
:1001B0008F913F912F910F900FBE0F901F90189528
:1001C00023EB230F4196A11DB11DD2CF78948AB5A0
:1001D00082608ABD8AB581608ABD83B7826083BF31
:1001E00083B7816083BF89B7826089BF80B782602F
:1001F00080BF3298319A309A379A8CB580648CBD22
:1002000061E081E068DF60E089E065DF93E0D92E9E
:100210000FE310E020E0E22E20E0F22ED7B8369A6D
:100220003699FECF84B1C5B1DC2FC82FD7FD2396F8
:10023000D595C795D595C79561E081E04CDF2097AE
:1002400039F480E012DFE114F10441F3D9DEE6CFA6
:10025000CF3FD10511F481E0F5CFF80184918230D0
:10026000A9F030F4813069F0C038D105A4F7E9CFA6
:10027000833089F08430C1F78CB580628CBDCBBDF2
:10028000E2CF8AB580688ABDC9BDDDCF8AB58062FC
:100290008ABDC8BDD8CF8CB580628CBDCEBDD3CF52
:0402A000F894FFCF00
:00000001FF
